:10000000280F0010010100000000000000000000A7
:1000100000000000000000000000000000000000E0
:1000200000000000000000000000000000000000D0
:1000300000000000000000000000000000000000C0
:1000400000000000000000000000000000000000B0
:1000500000000000000000000000000000000000A0
:100060000000000000000000000000000000000090
:100070000000000000000000000000005907000020
:10008000F901000000000000000000000000000076
:1000900000000000A50500000000000000000000B6
:1000A00010B5064C2378002B07D10548002802D054
:1000B000044800E000BF0121217010BD400800107D
:1000C000000000007816000008B5084B002B03D094
:1000D0000748084900E000BF07480168002903D02D
:1000E000064A002A00D0904708BDC0460000000024
:1000F00078160000440800103C08001000000000C2
:1001000010B51149114A914202D0002204C1F9E709
:100110000F49104A881A83080133990000230433D9
:100120008B4207D00C4CD0181C19043C24680438AE
:100130000460F4E7094C0A4A944202D002CC884792
:10014000F9E700F001FBFEE740080010240B001067
:100150003C08001000000010A016000084160000EB
:100160009016000010B5124C4200124B205CD25A7F
:1001700000281BD0104B114C80001B58205872B621
:10018000002906D11968D243114019600468224041
:1001900006E0022906D11C6894431C6003681A43D8
:1001A000026002E019680A431A6062B610BDC046D8
:1001B000941500006C150000A815000058150000EB
:1001C0000A4B4200D25A0A4B185C00280CD083001C
:1001D00008481B5872B61868002902D1904318606D
:1001E00001E002431A6062B67047C0466C15000019
:1001F00094150000581500000A490B480B78026856
:100200007C2B01D8013202E07D3BDBB2023202607E
:1002100006480B700268064B01320121026019602A
:100220007047C04660080010640800105C080010A9
:1002300000C00040214A2021136800208B43136036
:100240001F4B111C1860C823C046013B002BFBD17B
:100250001C4A012013601C4A106013601060136870
:10026000D807FCD51948232202600B6880229343EB
:100270000B601749012208681042FAD0154B164846
:1002800003211960002102600160026003680122FD
:100290001342FBD011481249124B08602F201860FE
:1002A000114803210160FA2310489900802301605E
:1002B00059020F480F4B01601A60704738820440A2
:1002C0002080044040800440448004400880044072
:1002D0000C8004407080044074800440FFFF0300E1
:1002E000808004400CC0004014C0004018C0004092
:1002F00000E100E004C0004010B50F4C0F49201C85
:1003000000F0D2FB201C0E4900F0CEFB201C0D4952
:1003100000F0CAFB201C0C4900F0C6FB201C0B4956
:1003200000F0C2FB201C0A4900F0BEFB201C09495A
:1003300000F0A5FB10BDC046B4080010BC150000BD
:10034000DE150000E9150000F51500000A16000092
:100350001A160000251600000D4908B50B4B0A4A75
:100360000A604B60962399010A4800F08DF90A480B
:1003700000F012FB0E200121FFF7F4FEFFF7BCFF97
:1003800008BDC046C046C0461009DFFB1BB4F73F9E
:1003900068080010B4080010580A0010C046C04693
:1003A00070B5434C201C00F095F800287FD0201C2D
:1003B00000F0AEF83F4DC1B2201C297000F07EFB6A
:1003C00028783138042870D801F06CF8030F1D37F5
:1003D0004C003949201C00F067FB0E200121FFF77B
:1003E000EFFE201C0A2110220AE03449201C00F0F4
:1003F0005BFB0E200021FFF7E3FE0A21201C0A1CF4
:1004000000F0B7FB51E0201C2D4900F04DFB2D4DB5
:10041000D021281C00F0E2FA75210122281C00F0EE
:10042000D5FA281C00F0EAFA281C00F0FBFA0A2290
:10043000011C201C00F07BFB37E0201C224900F04F
:1004400033FB204ED021301C00F0C8FA301C6B2149
:1004500000F0DAFA301C002100F0D6FA301C00F06F
:10046000CDFA22E01949201C00F01EFB154DD021C9
:10047000281C00F0B3FA02223B21281C00F0A6FA47
:10048000281C00F0BBFA1249201C00F0F8FA281CC6
:1004900000F0C8FA061C281C00F0C4FA010270180B
:1004A00001B21022201C00F068FBFFF725FF70BD91
:1004B000B408001070080010E2150000ED150000EF
:1004C000F9150000580A00100E1600002A16000048
:1004D00039160000034B044918780A78801A431E25
:1004E00098417047C4080010C6080010054B064A22
:1004F00018781178814202D0044B185C01E0012089
:1005000040427047C4080010C6080010710800106F
:10051000074A084913780878984206D00649C85C0B
:1005200001333F210B40137001E00122504270471C
:10053000C4080010C60800107108001070470000C1
:1005400070B51148114B05781A786C1CE4B2A242C0
:1005500017D00F4B0F4A1E6832401A600E4A1678A9
:10056000002E03D00D4A0470515503E00C4D0120BC
:10057000107029601C688026B00320431860081C96
:1005800001E00121484270BDB2080010C808001007
:1005900000E100E0FFFFDFFFC5080010C908001000
:1005A00000800040F7B5264B264C2749274A284DA6
:1005B00018780E78237812782C780190254F2649E8
:1005C0003868C5B20D70C50732D408780E27384098
:1005D000023822490A2827D800F064FF1826092685
:1005E00028262626262609000868C707E6D53F20C4
:1005F000551C05401A481B4F05703D681A4FBD54E5
:100600000778019DAF42EFD00278EDE709688806D0
:10061000D4D59E4201D10024D0E7144F1148FD5C8F
:1006200001330560DBB2C9E709680E490968C5E70F
:10063000064E3270034A1370054B1C70F7BDC0465E
:10064000C4080010C8080010B2080010C608001046
:10065000C508001008800040C70800101480004042
:10066000B10800100080004071080010C908001097
:1006700000234360034BFA218A0008338260036041
:100680007047C046501600001C4A1D48D12310B5C3
:10069000136003601B4B01241C601B4C83222260EF
:1006A0001A4800F009FF1A49030A0B60194BC0B23F
:1006B00018600322184822600724184A0460106852
:1006C0001C1C106860230340602BFAD113680120C2
:1006D000034001D02368F9E7114A124C13702370CC
:1006E0001148124A124C037013702370114A802370
:1006F0009803072410600C6010BDC046A44004405D
:10070000A8400440988004400C800040C0C62D00E2
:1007100004800040008000400880004014800040B9
:10072000B2080010C8080010C6080010C408001065
:10073000C508001000E100E008B50248FFF798FF87
:1007400008BDC046B408001008B5FFF773FDFFF7F9
:1007500003FEFFF725FEFCE7474B0021474810B595
:1007600019600268D4B2464A282C42D00CDC102C06
:1007700027D004DC082C79D1424B196024E0182CD6
:100780002BD0202C72D169E0482C67D005DC302CAE
:1007900048D0402C6AD13C4B53E0502C48D0582CC8
:1007A00064D1394B3948196804683948E4B2445473
:1007B00001311960374B0C21802419601021E305A9
:1007C00056E0314B19602F4B19683348445C2F4871
:1007D00001310460196028234CE030490B68012B7B
:1007E00005D18024E1051020086007213FE0254B5A
:1007F00005E0244B294C18682168884206D2196804
:100800002548445C21480131046031E0244B8024B8
:100810001868E305002801D0202129E01021196083
:100820000C2124E080231021DC05216009211EE039
:10083000154B1648196804681548E4B24454013150
:1008400019601C68164B0134196804208C4203D2CD
:100850008024E30518600CE010600AE0802010217D
:10086000C40521600B4908230B6003E00A21094BF2
:1008700019600823136010BD640A001004000040D2
:1008800018000040600A0010540A001008000040E0
:10089000680A00105C0A0010C9090010500A001014
:1008A0004C0A00101D4B02211A6830B50A431C4C3B
:1008B0001A60256820231B4A1D43256011683F24C8
:1008C000A143116015680121174B0D4315601D6888
:1008D000A5431D601D686C242943196013490C60F1
:1008E00015688024A1000D4315601A68104D11434E
:1008F000104C19603C232B602360022802D10E4962
:10090000A02008600D4B80221D6814022C4380211A
:100910001C604020CB051860012030BD04800440DD
:1009200080800440304004403440044018000040BF
:1009300014000040100000400C00004000E100E006
:100940000F4A10480023136003608023DA050E4B22
:100950002021062011601860196806290BD10B4A66
:100960000B491068884202D90B221A6003E0106814
:1009700001301060F0E707482021016018687047D7
:10098000540A0010600A00105C0A0010640A00108B
:10099000FEFFFF001800004008B50120FFF782FFAE
:1009A00008BD00000648074B1A604170027801211B
:1009B0000A43054B8270186842181A60002070477D
:1009C000C90900104C0A0010500A001008B5C9B23D
:1009D000D2B20123FFF7E6FF08BD0000044B01225D
:1009E0001A60044A044B0020106019707047C0461A
:1009F000500A00104C0A0010C909001008B5FFF792
:100A00009FFFC0B208BD0000044B05481A6881541E
:100A100019680120013119607047C046500A001062
:100A2000C9090010044B05491A68013A885C1A6824
:100A3000013A1A607047C0464C0A0010680A00105C
:100A4000F8B5061C0C1C8F180025BC4207D0336873
:100A500021781A68301C904701342D18F5E7281CBE
:100A6000F8BD38B5051C0C1C081E07D000F0CCFBE7
:100A70002B68021C5B68281C211C984738BD08B5F0
:100A8000FFF7EFFF08BD08B503681A68904708BD77
:100A900038B50D21041CFFF7F6FF0A21051C201CA8
:100AA000FFF7F1FF401938BD38B5041CFFF7D9FF37
:100AB000051C201CFFF7ECFF281838BD38B5041CB6
:100AC000FFF7E1FF051C201CFFF7E2FF401938BDCE
:100AD000F0B58BB009AC0023071C0D1C161C23704D
:100AE000012A00D80A26281C311C00F0E5FC011C54
:100AF00071436D1AEAB2013C092A01D8303200E094
:100B00003732D3B22370051EEDD1381C211CFFF7FC
:100B1000A8FF0BB0F0BD08B5002A04D10368C9B224
:100B20001A68904702E0D2B2FFF7D2FF08BD08B5BD
:100B3000FFF7F1FF08BDF8B5041C0D1C161E04D10B
:100B40000368C9B21A68904712E00A2A0DD1002939
:100B50000ADA2D21FFF797FF6942071C321C201C7F
:100B6000FFF7B6FFC01903E000E0D2B2FFF7B0FF15
:100B7000F8BD08B5FFF7DFFF08BD38B5041CFFF767
:100B8000DAFF051C201CFFF783FF281838BD000082
:100B9000F0B54F464646C0B498462C4B061CA425DB
:100BA00018680F1C6900445883B091460190002CCE
:100BB00047D062681F2A1ADD254C002C02D101277C
:100BC00078421DE0C823580000F074F8041EF6D0E7
:100BD000002545600199A42042008B5801982360AC
:100BE0008450C623C42251005800655025506568C2
:100BF000002E0AD1A91C8E000135375165600020F6
:100C000003B00CBC90469946F0BDAA00A0188823FA
:100C10004946C422C1505000221810680121A94041
:100C2000084310602A1C2032900022184046D05001
:100C3000022EDFD1C6267300E2181068014311604E
:100C4000D8E7041C4D34FF344450B2E7741600005A
:100C5000B50C0000F0B5154B154E4746F01A80B4A0
:100C600086101DD0751EAF00FF18012129403A687B
:100C700088463C1F9047002D12D04346002B06D0DB
:100C80002468A047B51E3C1C083C002D08D02068F5
:100C9000261F8047023D3768B847083C002DF6D133
:100CA00000F0F6FC04BC9046F0BDC0469C16000067
:100CB000A016000008B5034B011C186800F004F8EA
:100CC00008BDC04628040010F0B5564644465F46AD
:100CD0004D46F0B40C1C0B3483B0061C162C2AD9DC
:100CE00007239C432AD4A14228D8301C00F076FA6E
:100CF000BC48844226D8E008BB4DC300E918CF6841
:100D00008F4200D1D6E179680324A1437C18606842
:100D1000FD68BB6801220243DD60301CAB6062608D
:100D200000F05EFA381C083003B03CBC904699468F
:100D3000A246AB46F0BD1024A142D6D90C2737609D
:100D40000020F1E7610A00D18BE0042900D93EE1DF
:100D5000A7093837B8467B00A34D98002918CF68FB
:100D6000B94213D07A6803239A43131B0F2B7CDC00
:100D70000320002B07DB7CE07A688243131B0F2BD8
:100D800073DC002B75DAFF68B942F5D1012290447B
:100D90002B1C2F6908339F4200D168E1786803213A
:100DA0008843021C011B0F2900DD4FE16B612B61A1
:100DB00000296DDA8D4B984200D927E1C1088B10CC
:100DC0006A680120C90098406B1810439A68FB605C
:100DD000BA6068609F60D7604746BB1001219940A8
:100DE00081425AD801420DD142460327BA43131C0F
:100DF000043349009846014204D104274900B8440D
:100E00000142FAD0032084464246D3005F19BB4614
:100E1000381CC146C768B84207D12AE1002B00DB65
:100E200051E1FF68B84200D123E17A6863469A43F2
:100E3000131B0F2BF2DD01203A190443B9687C60C3
:100E4000FC681843CC60A1606A612A610835506073
:100E5000D560301C9560D35000F0C2F9381C0830C2
:100E600062E7E30898465B0076E701277942884409
:100E70008CE7BD68FC680123EC60A560BD1868685C
:100E80000343301C6B6000F0ABF9381C08304BE7B3
:100E90003D186A6801231343F3E7AF6803217B68B9
:100EA0008B439946A34203D3181B0F2800DD80E033
:100EB00048463A184E494F480B6801680192E318BA
:100EC0008346481C00D141E14B481B181A0B110303
:100ED0000091301C009900F085F98046421C5DD0DD
:100EE000019B434500D906E14448009903688246C6
:100EF000CB1803600198404500D135E15A4610688F
:100F0000421C00D147E1019A4146881A1B185146FC
:100F10000B60072341460B4000D1FEE0C81A384958
:100F200008308046CB1A009A101C404401050A0D77
:100F30009B1A191C301C9B4600F054F9411C00D12F
:100F40001DE14146401A584401221043524611689F
:100F50000B1C5B4441461360A9604860AF4213D04C
:100F600048460F2800D8E4E04A46786807210C3A42
:100F70008A4301210140114379600520B918486076
:100F800088600F2A00D9FEE01E4F39688B4200D9D5
:100F90003B601D480268934200D90360AF68032399
:100FA00079689943081BA14200D2A8E00F2800DC11
:100FB000A5E00122231C104313433C197B60AC6065
:100FC0006060301C00F00CF9381C0830ACE61429C5
:100FD00000D887E0542900D996E0250B6E35A84645
:100FE0006B00B9E6F70100002C040010FF010000BF
:100FF000F00A0010380800100F100000F40A00106A
:1010000008100000EC0A0010E80A0010400A04284A
:101010006CD9142800D99CE05B30824640008000E7
:10102000431999469B6803218C464B4578D05968F3
:10103000604681438A4202D29B689945F7D1D968BC
:101040006868F960BB60DF608F60C5E601203A190F
:10105000044308437C606A612A615060D360301C9D
:101060009360515000F0BCF8381C08305CE66868AA
:10107000B2E60122914463464F4608303B4200D01D
:10108000C8E65A4643466046184200D198E0171C0D
:101090001268083F013BBA42F5D06F684900B94277
:1010A00000D9FAE6002900D1F7E6394200D18BE0F9
:1010B000C846A9E63A1C7F69023008328046BA4227
:1010C00000D165E61FE6BA185468B868FD680123C8
:1010D0002343C560A8605360301C00F081F8381CC1
:1010E000083021E65B3188464B0035E691093831FE
:1010F0008A46480093E7AF4200D04FE7F4E6301C41
:1011000000F06EF800200FE6AA225500A94215D87B
:10111000E20B7732904653001EE68022530102E72D
:101120005246911001206A68884010436860191C7B
:1011300087E701224A604746002133E7264FB9423C
:101140000ED8A10C7C3188464B0005E61033009385
:10115000BFE6542823D8130B6E339A4658005EE737
:101160007E20FC238046F7E5010500D0C6E6009905
:10117000AF68081C4844012202437A6004E7002358
:1011800001209B46E2E6391C0831301C574600F02E
:10119000A7F83B68F8E6424658460260B9E6AA213D
:1011A0004B00984204D8D00B77308246400036E797
:1011B000094988420CD8910C7C318A4648002EE7B8
:1011C0006F688F436F6069E70420814449006CE7D2
:1011D0007E23FC209A4622E7540500007047C04653
:1011E0007047C04638B5074C0023051C081C236017
:1011F00000F03EF9431C00D038BD21680029FBD027
:101200002960F9E7200B00100023C25C0133002A9B
:10121000FBD1581E7047C04608B5034B002B02D0C7
:10122000024800F005F808BD00000000550C000061
:1012300008B5011C002200200023FFF7A9FC08BD0F
:10124000F8B50F1C041CFFF7C9FF204D0320AB6845
:101250001F4A5E688643B118CF1B3B0B1D48013BFC
:101260001F03874207DD0021201CFFF7BBFFAA6890
:101270009119884204D0201CFFF7B2FF0020F8BD6E
:101280007942201CFFF7AEFF01300DD01248AD6847
:101290000268F61B01231E43D71B07606E60201CEB
:1012A000FFF79EFF0120EAE7201C0021FFF79AFFCD
:1012B000AD68461B0F2EDEDD0849074A0B68012783
:1012C000C01A3E4310606E60D5E7C0462C04001083
:1012D000EF0F0000FF0F0000F40A001038080010A4
:1012E000F0B5474680B4051C0C1E55D0FFF776FFBD
:1012F000211C083948680127031CBB43CA185468DD
:101300000326B4438046201C534CA668964260D006
:101310000026B4464646506037420AD10F68C91BC2
:10132000DB198E68271C0837BE426BD0CF68F76088
:10133000BE6017187F680126374207D11B18604628
:1013400000282CD09068D268C260906001271E1CD3
:101350003E4360464E60CB5000281AD13F4A93422C
:1013600029D95F0A042F50D89F0938377E00B00072
:1013700020188268032682424CD05468B443A342AA
:1013800002D292689042F8D1D768CF608A60D1606B
:10139000B960281CFFF724FF04BC9046F0BD90689C
:1013A0002F4FB842CFD11E43C1608160C8608860B2
:1013B0004E60CB50EDE7DA089010636887401F431A
:1013C000D6006760A419A768CC608F60F960A1603F
:1013D000DFE7C3184046074206D10E68891BCF6875
:1013E0008A689B19D760BA6001201843A1604860E1
:1013F0001C490C68A342CCD31B4E281C3168FFF754
:101400001FFFC6E70126B44693E7142F0BD85B37BE
:101410007E00ACE7B8100123676883401E1C3E4382
:101420006660171CB1E7542F03D81F0B6E377E0080
:101430009DE7AA267000874203D8DF0B77377E002E
:1014400095E70A4A974203D89F0C7C377E008EE7C7
:10145000FC267E278BE7C0462C040010FF0100000D
:101460003404001034080010F00A00105405000085
:10147000094A1368002B0CD018186946884202D814
:101480001060181C7047054B0C2201201A60434263
:10149000F7E7034B1360EFE71C0B0010200B001065
:1014A000240B001002B4714649084900095C490048
:1014B0008E4402BC7047C046002934D0012300226C
:1014C00010B488422CD301242407A14204D28142C3
:1014D00002D209011B01F8E7E400A14204D28142D3
:1014E00002D249005B00F8E7884201D3401A1A4350
:1014F0004C08A04202D3001B5C0822438C08A04287
:1015000002D3001B9C082243CC08A04202D3001B3C
:10151000DC082243002803D01B0901D00909E3E7B6
:10152000101C10BC7047002801D00020C04307B435
:10153000024802A14018029003BDC04619000000F5
:101540000029F0D003B5FFF7B9FF0EBC4243891A5A
:101550001847C0467047C04600000000FC3F0050DE
:10156000FC3F01500000000000000000400080002F
:1015700000010002020004000800100080000001C9
:1015800000020004200040002000010002000400CE
:101590000800100002020202010101010101010123
:1015A000010102020202020200000000008000505D
:1015B0000080015000000000000000004D61696ED5
:1015C000204D656E75202D205265737472696374A9
:1015D0006F7220506C6174652076302E3100312E90
:1015E00020204C4544204F4E00322E20204C4544B4
:1015F000204F464600332E20204D50553630353092
:101600002057484F5F414D5F4900342E2020436CE6
:1016100065617220736C65657000352E20205265FF
:1016200061642058003D3D3E20004D505536303518
:101630003020582D61786973004D50553630353063
:10164000205820617869733A20307800000000004B
:10165000000000000000000041050000410A0000F9
:10166000D504000011050000ED0400003D05000058
:101670004300000000000010F8B5C046F8BC08BCEC
:101680009E46704719120000C9000000390700008B
:10169000F8B5C046F8BC08BC9E467047A1000000E3
:1016A00000000000EC02001054030010BC03001006
:1016B000000000000000000000000000000000002A
:1016C000000000000000000000000000000000001A
:1016D0000000000070160000000000000000000084
:1016E00000000000000000000000000000000000FA
:1016F00000000000000000000000000000000000EA
:1017000000000000000000000000000000000000D9
:1017100000000000000000000000000000000000C9
:1017200000000000000000000000000000000000B9
:1017300000000000000000000000000000000000A9
:101740000000000000000000010000000000000098
:101750000E33CDAB34126DE6ECDE05000B0000005D
:101760000000000000000000000000000000000079
:101770000000000000000000000000000000000069
:101780000000000000000000000000000000000059
:101790000000000000000000000000000000000049
:101AC0000000000000000000000000100000000006
:101AD000000000002C0400102C040010340400103E
:101AE000340400103C0400103C04001044040010B6
:101AF000440400104C0400104C0400105404001066
:101B0000540400105C0400105C0400106404001015
:101B1000640400106C0400106C04001074040010C5
:101B2000740400107C0400107C0400108404001075
:101B3000840400108C0400108C0400109404001025
:101B4000940400109C0400109C040010A4040010D5
:101B5000A4040010AC040010AC040010B404001085
:101B6000B4040010BC040010BC040010C404001035
:101B7000C4040010CC040010CC040010D4040010E5
:101B8000D4040010DC040010DC040010E404001095
:101B9000E4040010EC040010EC040010F404001045
:101BA000F4040010FC040010FC04001004050010F4
:101BB000040500100C0500100C05001014050010A1
:101BC000140500101C0500101C0500102405001051
:101BD000240500102C0500102C0500103405001001
:101BE000340500103C0500103C05001044050010B1
:101BF000440500104C0500104C0500105405001061
:101C0000540500105C0500105C0500106405001010
:101C1000640500106C0500106C05001074050010C0
:101C2000740500107C0500107C0500108405001070
:101C3000840500108C0500108C0500109405001020
:101C4000940500109C0500109C050010A4050010D0
:101C5000A4050010AC050010AC050010B405001080
:101C6000B4050010BC050010BC050010C405001030
:101C7000C4050010CC050010CC050010D4050010E0
:101C8000D4050010DC050010DC050010E405001090
:101C9000E4050010EC050010EC050010F405001040
:101CA000F4050010FC050010FC05001004060010EF
:101CB000040600100C0600100C060010140600109C
:101CC000140600101C0600101C060010240600104C
:101CD000240600102C0600102C06001034060010FC
:101CE000340600103C0600103C06001044060010AC
:101CF000440600104C0600104C060010540600105C
:101D0000540600105C0600105C060010640600100B
:101D1000640600106C0600106C06001074060010BB
:101D2000740600107C0600107C060010840600106B
:101D3000840600108C0600108C060010940600101B
:101D4000940600109C0600109C060010A4060010CB
:101D5000A4060010AC060010AC060010B40600107B
:101D6000B4060010BC060010BC060010C40600102B
:101D7000C4060010CC060010CC060010D4060010DB
:101D8000D4060010DC060010DC060010E40600108B
:101D9000E4060010EC060010EC060010F40600103B
:101DA000F4060010FC060010FC06001004070010EA
:101DB000040700100C0700100C0700101407001097
:101DC000140700101C0700101C0700102407001047
:101DD000240700102C0700102C07001034070010F7
:101DE000340700103C0700103C07001044070010A7
:101DF000440700104C0700104C0700105407001057
:101E0000540700105C0700105C0700106407001006
:101E1000640700106C0700106C07001074070010B6
:101E2000740700107C0700107C0700108407001066
:101E3000840700108C0700108C0700109407001016
:101E4000940700109C0700109C070010A4070010C6
:101E5000A4070010AC070010AC070010B407001076
:101E6000B4070010BC070010BC070010C407001026
:101E7000C4070010CC070010CC070010D4070010D6
:101E8000D4070010DC070010DC070010E407001086
:101E9000E4070010EC070010EC070010F407001036
:101EA000F4070010FC070010FC07001004080010E5
:101EB000040800100C0800100C0800101408001092
:101EC000140800101C0800101C0800102408001042
:0C1ED0002408001000000200FFFFFFFFCC
:0400000300000101F7
:00000001FF
