:10000000400F00100101000000000000000000008F
:1000100000000000000000000000000000000000E0
:1000200000000000000000000000000000000000D0
:1000300000000000000000000000000000000000C0
:1000400000000000000000000000000000000000B0
:1000500000000000000000000000000000000000A0
:100060000000000000000000000000000000000090
:100070000000000000000000000000001508000063
:10008000F901000000000000000000000000000076
:1000900000000000610600000000000000000000F9
:1000A00010B5064C2378002B07D10548002802D054
:1000B000044800E000BF0121217010BD4808001075
:1000C000000000007037000008B5084B002B03D07B
:1000D0000748084900E000BF07480168002903D02D
:1000E000064A002A00D0904708BDC0460000000024
:1000F000703700004C080010440800100000000099
:1001000010B51149114A914202D0002204C1F9E709
:100110000F49104A881A83080133990000230433D9
:100120008B4207D00C4CD0181C19043C24680438AE
:100130000460F4E7094C0A4A944202D002CC884792
:10014000F9E700F05FFBFEE7480800103C0B0010E9
:100150004408001000000010983700007C370000B1
:100160008837000010B5124C4200124B205CD25A66
:1001700000281BD0104B114C80001B58205872B621
:10018000002906D11968D243114019600468224041
:1001900006E0022906D11C6894431C6003681A43D8
:1001A000026002E019680A431A6062B610BDC046D8
:1001B000C43500009C350000D835000088350000AB
:1001C0000A4B4200D25A0A4B185C00280CD083001C
:1001D00008481B5872B61868002902D1904318606D
:1001E00001E002431A6062B67047C0469C350000C9
:1001F000C4350000883500000A490B480B780268B6
:100200007C2B01D8013202E07D3BDBB2023202607E
:1002100006480B700268064B01320121026019602A
:100220007047C046680800106C0800106408001091
:1002300000C00040214A2021136800208B43136036
:100240001F4B111C1860C823C046013B002BFBD17B
:100250001C4A012013601C4A106013601060136870
:10026000D807FCD51948232202600B6880229343EB
:100270000B601749012208681042FAD0154B164846
:1002800003211960002102600160026003680122FD
:100290001342FBD011481249124B08602F201860FE
:1002A000114803210160FA2310489900802301605E
:1002B00059020F480F4B01601A60704738820440A2
:1002C0002080044040800440448004400880044072
:1002D0000C8004407080044074800440FFFF0300E1
:1002E000808004400CC0004014C0004018C0004092
:1002F00000E100E004C0004010B50F4C0F49201C85
:1003000000F030FC201C0E4900F02CFC201C0D4994
:1003100000F028FC201C0C4900F024FC201C0B4998
:1003200000F020FC201C0A4900F01CFC201C09499C
:1003300000F003FC10BDC046CC080010EC350000F6
:100340000E36000019360000253600003A3600004F
:100350004A3600005536000008B596218901064846
:1003600000F0F0F9054800F075FB0E200121FFF7C1
:10037000F9FEFFF7C1FF08BDCC080010700A00109D
:1003800073B5714C201C00F003F9002800D1C8E0BF
:10039000201C00F01BF96D4DC1B2201C297000F02B
:1003A000EBFB28783138052800D9B8E001F0D8F9FE
:1003B000031019374C6F6649201C00F0D3FB012154
:1003C0000E20FFF7FDFE634B06211A685B68A2E072
:1003D000201C614900F0C6FB0E200021FFF7F0FE53
:1003E0009DE0201C5D4900F0BDFB5D4DD021281C27
:1003F00000F052FB01227521281C00F045FB281C4F
:1004000000F05AFB5749201C00F097FB281C00F015
:1004100067FB1022011C201C00F0E7FB7FE0201C82
:10042000514900F09FFB4E4CD021201C00F034FBC2
:10043000201C6B2100F046FB201C002100F042FB39
:10044000201C00F039FB6AE0201C484900F08AFBC0
:10045000434DD021281C00F01FFB02223B21281C09
:1004600000F012FB281C00F027FB4149201C00F083
:1004700064FB281C00F034FB061C281C00F030FB39
:1004800001027118201C102200F0D7FB47E0394907
:10049000201C00F067FB324DD021281C00F0FCFA34
:1004A00041210222281C00F0EFFA281C00F004FB76
:1004B000281C00F015FB304E3070281C00F010FB9B
:1004C0002E4A31781070000243182D4E9DB23580AF
:1004D00028B202F0CFFF154B134A01F0A9FD144AD0
:1004E000144B01F0F5F9021C26480B1C0260436016
:1004F000101C114A114B02F095F9114A114B01F0F1
:10050000E7F9214D286069602049201C00F015FBA7
:100510002A686B6802210091201C00F051FCFFF753
:10052000EBFE73BDC046C0460000000000407540B1
:10053000A4703D0AD7434240CDCCCCCCCCCCFC3FC0
:100540000000000000004040CC08001078080010B7
:1005500012360000000000101D3600002936000091
:10056000700A00105A3600003E3600006F36000058
:100570007E360000913600007D0800107C080010D7
:100580007A08001080080010700800109E360000E5
:10059000034B044918780A78801A431E9841704723
:1005A000DC080010DE080010054B064A18781178A8
:1005B000814202D0044B185C01E0012040427047A8
:1005C000DC080010DE08001088080010074A0849FF
:1005D00013780878984206D00649C85C01333F2159
:1005E0000B40137001E0012250427047DC080010FC
:1005F000DE080010880800107047000070B5114830
:10060000114B05781A786C1CE4B2A24217D00F4B3C
:100610000F4A1E6832401A600E4A1678002E03D028
:100620000D4A0470515503E00C4D012010702960F3
:100630001C688026B00320431860081C01E00121DB
:10064000484270BDC9080010E008001000E100E059
:10065000FFFFDFFFDD080010E10800100080004010
:10066000F7B5264B264C2749274A284D18780E788F
:10067000237812782C780190254F26493868C5B226
:100680000D70C50732D408780E2738400238224949
:100690000A2827D801F064F81826092628262626D5
:1006A000262609000868C707E6D53F20551C0540E7
:1006B0001A481B4F05703D681A4FBD540778019DBD
:1006C000AF42EFD00278EDE709688806D4D59E42A4
:1006D00001D10024D0E7144F1148FD5C01330560BF
:1006E000DBB2C9E709680E490968C5E7064E3270F2
:1006F000034A1370054B1C70F7BDC046DC080010A0
:10070000E0080010C9080010DE080010DD08001025
:1007100008800040DF08001014800040C808001066
:100720000080004088080010E108001000234360AA
:10073000034BFA218A000833826003607047C04689
:10074000B83600001C4A1D48D12310B51360036061
:100750001B4B01241C601B4C832222601A4801F0B1
:1007600009F81A49030A0B60194BC0B2186003223A
:10077000184822600724184A046010681C1C10687E
:1007800060230340602BFAD113680120034001D09D
:100790002368F9E7114A124C137023701148124A6A
:1007A000124C037013702370114A8023980307249E
:1007B00010600C6010BDC046A4400440A840044036
:1007C000988004400C800040C0C62D00048000408A
:1007D000008000400880004014800040C9080010DC
:1007E000E0080010DE080010DC080010DD08001032
:1007F00000E100E008B50248FFF798FF08BDC046D9
:10080000CC08001008B5FFF715FDFFF7A5FDFFF7B1
:10081000B7FDFCE7474B0021474810B51960026857
:10082000D4B2464A282C42D00CDC102C27D004DC51
:10083000082C79D1424B196024E0182C2BD0202CA5
:1008400072D169E0482C67D005DC302C48D0402CB0
:100850006AD13C4B53E0502C48D0582C64D1394BD2
:100860003948196804683948E4B2445401311960C0
:10087000374B0C21802419601021E30556E0314BE1
:1008800019602F4B19683348445C2F4801310460CC
:10089000196028234CE030490B68012B05D18024D6
:1008A000E1051020086007213FE0254B05E0244BBF
:1008B000294C18682168884206D219682548445C8A
:1008C00021480131046031E0244B80241868E3059D
:1008D000002801D0202129E0102119600C2124E0FA
:1008E00080231021DC05216009211EE0154B1648EC
:1008F000196804681548E4B24454013119601C6851
:10090000164B0134196804208C4203D28024E3057D
:1009100018600CE010600AE080201021C4052160FE
:100920000B4908230B6003E00A21094B19600823D7
:10093000136010BD7C0A0010040000401800004045
:10094000780A00106C0A001008000040800A0010AD
:10095000740A0010E1090010680A0010640A00100F
:100960001D4B02211A6830B50A431C4C1A602568D9
:1009700020231B4A1D43256011683F24A1431160B9
:1009800015680121174B0D4315601D68A5431D60B7
:100990001D686C242943196013490C601568802474
:1009A000A1000D4315601A68104D1143104C1960D9
:1009B0003C232B602360022802D10E49A02008604E
:1009C0000D4B80221D6814022C4380211C604020A6
:1009D000CB051860012030BD0480044080800440B5
:1009E00030400440344004401800004014000040EF
:1009F000100000400C00004000E100E00F4A1048E9
:100A00000023136003608023DA050E4B20210620AB
:100A100011601860196806290BD10B4A0B49106840
:100A2000884202D90B221A6003E01068013010607E
:100A3000F0E7074820210160186870476C0A001031
:100A4000780A0010740A00107C0A0010FEFFFF00F4
:100A50001800004008B50120FFF782FF08BD000024
:100A60000648074B1A604170027801210A43054B82
:100A70008270186842181A6000207047E10900105F
:100A8000640A0010680A001008B5C9B2D2B2012386
:100A9000FFF7E6FF08BD0000044B01221A60044A7C
:100AA000044B0020106019707047C046680A00109F
:100AB000640A0010E109001008B5FFF79FFFC0B2FB
:100AC00008BD0000044B05481A68815419680120CC
:100AD000013119607047C046680A0010E109001032
:100AE000044B05491A68013A885C1A68013A1A6091
:100AF0007047C046640A0010800A0010F8B5061C52
:100B00000C1C8F180025BC4207D0336821781A6866
:100B1000301C904701342D18F5E7281CF8BD38B576
:100B2000051C0C1C081E07D000F0CCFC2B68021C16
:100B30005B68281C211C984738BD08B5FFF7EFFFFC
:100B400008BD08B503681A68904708BD38B50D217F
:100B5000041CFFF7F6FF0A21051C201CFFF7F1FF1C
:100B6000401938BD38B5041CFFF7D9FF051C201CFF
:100B7000FFF7ECFF281838BD38B5041CFFF7E1FF7C
:100B8000051C201CFFF7E2FF401938BDF0B58BB003
:100B900009AC0023071C0D1C161C2370012A00D869
:100BA0000A26281C311C00F0E5FD011C71436D1A5A
:100BB000EAB2013C092A01D8303200E03732D3B220
:100BC0002370051EEDD1381C211CFFF7A8FF0BB0C8
:100BD000F0BD08B5002A04D10368C9B21A6890476D
:100BE00002E0D2B2FFF7D2FF08BD38B5041CFFF710
:100BF000F0FF051C201CFFF7A9FF281838BDF8B529
:100C0000041C0D1C161E04D10368C9B21A68904753
:100C100012E00A2A0DD100290ADA2D21FFF791FFEF
:100C20006942071C321C201CFFF7B0FFC01903E00B
:100C300000E0D2B2FFF7AAFFF8BD38B5041CFFF7F9
:100C4000DEFF051C201CFFF781FF401938BD0000A6
:100C5000F7B51C1C08AB071C1878211C0090101C51
:100C6000151C00F0E5FB002802D1381C504907E0B4
:100C7000281C211C00F0DCFB012805D14D49381C43
:100C8000FFF74DFF061C7BE0281C211C3F4B3E4A12
:100C900000F0EAFD002807D1281C211C3C4A3D4BEE
:100CA00000F0CEFD002802D0381C4349E8E7281C9C
:100CB000211C394A394B00F0C3FD002808D02D21F2
:100CC000381CFFF73EFF80210A060190A41800E0BF
:100CD00001900026324A334B009886420AD0101CFD
:100CE000191C314A314B01F0A3F90136021C0B1CCF
:100CF000F6B2F1E7281C211C00F0EAFD0D1C041CD3
:100D000000F0C6FD061C02F0EFFB0B1C021C291CA8
:100D1000201C01F0F9FF0A22041C0D1C381C311C98
:100D2000FFF734FF019B0099C618002928D0381C12
:100D30002249FFF7F4FE3618009A002A20D01A4AFA
:100D40001A4B201C291C01F06DFD0D1C041C02F027
:100D50005DFB01900A220199381CFFF750FF3618FD
:100D6000019802F087FB0B1C021C291C201C01F0BF
:100D7000CBFF041C00980D1C0138C3B20093DBE7C5
:100D8000301CFEBDC046C046000000E0FFFFEF4142
:100D9000000000E0FFFFEFC10000000000000000C5
:100DA000000000000000E03F0000000000002440C0
:100DB000D8360000DC360000E0360000E4360000E3
:100DC00037B5041C6846017E201C0091FFF740FFE8
:100DD000051C201CFFF7BAFE28183EBDF0B54F4693
:100DE0004646C0B498462C4B061CA42518680F1C18
:100DF0006900445883B091460190002C47D0626846
:100E00001F2A1ADD254C002C02D1012778421DE053
:100E1000C823580000F074F8041EF6D00025456081
:100E20000199A42042008B58019823608450C62366
:100E3000C42251005800655025506568002E0AD123
:100E4000A91C8E00013537516560002003B00CBC31
:100E500090469946F0BDAA00A01888234946C422AE
:100E6000C1505000221810680121A94008431060A9
:100E70002A1C2032900022184046D050022EDFD18A
:100E8000C6267300E218106801431160D8E7041CFD
:100E90004D34FF344450B2E7EC360000010F00003F
:100EA000F0B5154B154E4746F01A80B486101DD08C
:100EB000751EAF00FF18012129403A6888463C1F83
:100EC0009047002D12D04346002B06D02468A0473F
:100ED000B51E3C1C083C002D08D02068261F80470A
:100EE000023D3768B847083C002DF6D102F04CFCB3
:100EF00004BC9046F0BDC04694370000983700000F
:100F000008B5034B011C186800F004F808BDC04682
:100F100030040010F0B5564644465F464D46F0B4E6
:100F20000C1C0B3483B0061C162C2AD907239C43B7
:100F30002AD4A14228D8301C00F076FABC4884425A
:100F400026D8E008BB4DC300E918CF688F4200D116
:100F5000D6E179680324A1437C186068FD68BB680A
:100F600001220243DD60301CAB60626000F05EFA7B
:100F7000381C083003B03CBC90469946A246AB46AC
:100F8000F0BD1024A142D6D90C2737600020F1E72C
:100F9000610A00D18BE0042900D93EE1A709383766
:100FA000B8467B00A34D98002918CF68B94213D0EA
:100FB0007A6803239A43131B0F2B7CDC0320002B3E
:100FC00007DB7CE07A688243131B0F2B73DC002B5A
:100FD00075DAFF68B942F5D1012290442B1C2F69C4
:100FE00008339F4200D168E1786803218843021CDE
:100FF000011B0F2900DD4FE16B612B6100296DDAC8
:101000008D4B984200D927E1C1088B106A680120F6
:10101000C90098406B1810439A68FB60BA6068601A
:101020009F60D7604746BB100121994081425AD842
:1010300001420DD142460327BA43131C0433490031
:101040009846014204D104274900B8440142FAD02D
:10105000032084464246D3005F19BB46381CC14674
:10106000C768B84207D12AE1002B00DB51E1FF68D5
:10107000B84200D123E17A6863469A43131B0F2BD1
:10108000F2DD01203A190443B9687C60FC6818431A
:10109000CC60A1606A612A6108355060D560301C5F
:1010A0009560D35000F0C2F9381C083062E7E308BD
:1010B00098465B0076E70127794288448CE7BD6853
:1010C000FC680123EC60A560BD1868680343301C10
:1010D0006B6000F0ABF9381C08304BE73D186A68CC
:1010E00001231343F3E7AF6803217B688B439946E1
:1010F000A34203D3181B0F2800DD80E048463A18AE
:101100004E494F480B6801680192E3188346481C1A
:1011100000D141E14B481B181A0B11030091301C00
:10112000009900F0BDF98046421C5DD0019B43450B
:1011300000D906E14448009903688246CB18036051
:101140000198404500D135E15A461068421C00D153
:1011500047E1019A4146881A1B1851460B60072344
:1011600041460B4000D1FEE0C81A3849083080469D
:10117000CB1A009A101C404401050A0D9B1A191C39
:10118000301C9B4600F08CF9411C00D11DE141460A
:10119000401A584401221043524611680B1C5B440C
:1011A00041461360A9604860AF4213D048460F28FB
:1011B00000D8E4E04A46786807210C3A8A430121C6
:1011C0000140114379600520B918486088600F2AF2
:1011D00000D9FEE01E4F39688B4200D93B601D48A4
:1011E0000268934200D90360AF680323796899438A
:1011F000081BA14200D2A8E00F2800DCA5E00122D4
:10120000231C104313433C197B60AC606060301CAE
:1012100000F00CF9381C0830ACE6142900D887E03F
:10122000542900D996E0250B6E35A8466B00B9E627
:10123000F701000034040010FF010000080B00104B
:10124000400800100F1000000C0B001008100000E8
:10125000040B0010000B0010400A04286CD914285D
:1012600000D99CE05B3082464000800043199946DB
:101270009B6803218C464B4578D059686046814372
:101280008A4202D29B689945F7D1D9686868F960AB
:10129000BB60DF608F60C5E601203A190443084354
:1012A0007C606A612A615060D360301C9360515049
:1012B00000F0BCF8381C08305CE66868B2E6012231
:1012C000914463464F4608303B4200D0C8E65A4638
:1012D00043466046184200D198E0171C1268083F48
:1012E000013BBA42F5D06F684900B94200D9FAE62D
:1012F000002900D1F7E6394200D18BE0C846A9E6C3
:101300003A1C7F69023008328046BA4200D165E655
:101310001FE6BA185468B868FD6801232343C56006
:10132000A8605360301C00F081F8381C083021E6BA
:101330005B3188464B0035E6910938318A464800D2
:1013400093E7AF4200D04FE7F4E6301C00F06EF8B0
:1013500000200FE6AA225500A94215D8E20B7732E9
:10136000904653001EE68022530102E75246911038
:1013700001206A68884010436860191C87E70122D1
:101380004A604746002133E7264FB9420ED8A10CE8
:101390007C3188464B0005E610330093BFE65428A5
:1013A00023D8130B6E339A4658005EE77E20FC2349
:1013B0008046F7E5010500D0C6E60099AF68081C35
:1013C0004844012202437A6004E7002301209B463F
:1013D000E2E6391C0831301C574600F0DFF83B6864
:1013E000F8E6424658460260B9E6AA214B00984208
:1013F00004D8D00B77308246400036E7094988424E
:101400000CD8910C7C318A4648002EE76F688F43D8
:101410006F6069E70420814449006CE77E23FC206B
:101420009A4622E7540500007047C0467047C04600
:101430000B1C011C30B519430222002901D1101CDC
:1014400030BD80242506AB421ED0114A11499C189C
:1014500004228C42F3D9104D5C198C42EFD90F490C
:1014600003228B42EBD9802215060C495C1903221A
:101470008C42E4D9084A934203D0054D0022AB4286
:10148000DDD142424241DAE70028D8D0EBE7C0463E
:101490000000F0FFFFFFDF7F0000F07FFFFF0F0085
:1014A00038B5074C0023051C081C236000F03EF9EA
:1014B000431C00D038BD21680029FBD02960F9E722
:1014C000380B00100023C25C0133002AFBD1581EE8
:1014D0007047C04608B5034B002B02D0024800F00D
:1014E00005F808BD00000000A10E000008B5011CB1
:1014F000002200200023FFF771FC08BDF8B50F1C87
:10150000041CFFF791FF204D0320AB681F4A5E6863
:101510008643B118CF1B3B0B1D48013B1F0387427D
:1015200007DD0021201CFFF7BBFFAA689119884244
:1015300004D0201CFFF77AFF0020F8BD7942201C60
:10154000FFF7AEFF01300DD01248AD680268F61B00
:1015500001231E43D71B07606E60201CFFF766FF48
:101560000120EAE7201C0021FFF79AFFAD68461B27
:101570000F2EDEDD0849074A0B680127C01A3E43DB
:1015800010606E60D5E7C04634040010EF0F000015
:10159000FF0F00000C0B001040080010F0B547468C
:1015A00080B4051C0C1E55D0FFF73EFF211C0839E6
:1015B00048680127031CBB43CA1854680326B44378
:1015C0008046201C534CA668964260D00026B44644
:1015D0004646506037420AD10F68C91BDB198E6836
:1015E000271C0837BE426BD0CF68F760BE60171863
:1015F0007F680126374207D11B18604600282CD08F
:101600009068D268C260906001271E1C3E4360460D
:101610004E60CB5000281AD13F4A934229D95F0A25
:10162000042F50D89F0938377E00B00020188268F8
:10163000032682424CD05468B443A34202D292683B
:101640009042F8D1D768CF608A60D160B960281C19
:10165000FFF7ECFE04BC9046F0BD90682F4FB842F7
:10166000CFD11E43C1608160C86088604E60CB509E
:10167000EDE7DA089010636887401F43D600676083
:10168000A419A768CC608F60F960A160DFE7C31878
:101690004046074206D10E68891BCF688A689B19AD
:1016A000D760BA6001201843A16048601C490C68EB
:1016B000A342CCD31B4E281C3168FFF71FFFC6E79F
:1016C0000126B44693E7142F0BD85B377E00ACE7B6
:1016D000B8100123676883401E1C3E436660171CD8
:1016E000B1E7542F03D81F0B6E377E009DE7AA2663
:1016F0007000874203D8DF0B77377E0095E70A4AF0
:10170000974203D89F0C7C377E008EE7FC267E270D
:101710008BE7C04634040010FF0100003C040010B9
:101720003C080010080B001054050000094A13681B
:10173000002B0CD018186946884202D81060181C7B
:101740007047054B0C2201201A604342F7E7034B18
:101750001360EFE7340B0010380B00103C0B001047
:1017600002B4714649084900095C49008E4402BC34
:101770007047C046002934D00123002210B48842AB
:101780002CD301242407A14204D2814202D20901B0
:101790001B01F8E7E400A14204D2814202D24900D1
:1017A0005B00F8E7884201D3401A1A434C08A04274
:1017B00002D3001B5C0822438C08A04202D3001B0A
:1017C0009C082243CC08A04202D3001BDC08224321
:1017D000002803D01B0901D00909E3E7101C10BC45
:1017E0007047002801D00020C04307B4024802A17E
:1017F0004018029003BDC046190000000029F0D037
:1018000003B5FFF7B9FF0EBC4243891A1847C0461B
:101810007047C0468446101C62468C46191C6346BD
:1018200000E0C0461FB500F091FF002801D4002160
:10183000C8421FBD10B500F0D7FE4042013010BDB8
:1018400010B500F083FF002801DB002010BD01204F
:1018500010BDC04610B500F079FF002801DD002062
:1018600010BD012010BDC04610B500F0FBFE0028E1
:1018700001DC002010BD012010BDC04610B500F0F5
:10188000F1FE002801DA002010BD012010BDC04685
:1018900038B50E4B0C4A041C0D1CFFF7EFFF002857
:1018A00004D1201C291C01F0B1FD38BD074B064AAC
:1018B000201C291C01F028FA01F0A8FD802319063C
:1018C0004018F2E7C046C046000000000000E041BA
:1018D000F8B55F4656464D464446F0B40C03460FF5
:1018E000640A3443A3465E001C03DB0F9C46630A74
:1018F00098464D00530F44461C436D0DC90F760D9D
:10190000D2000F1CC000A1469246AB1B614500D11E
:10191000A4E0002B00DCF5E0002E0CD1261C1643C1
:1019200000D1C2E0013B002B00D046E15C464B46B3
:10193000821AE71A21E0D24EB54200D1CDE08024D0
:101940004A4627043A439146382B00DD0FE11F2B0E
:1019500000DD50E12026F61A4C4652465746B44068
:10196000B740DA4022433E1C4C46771EBE41DC4065
:101970003243261C5B46821A9F1B9042804146429E
:10198000BB1B141C2E1C0F1C180200D4AEE05D0201
:10199000690A88464246002A00D1D9E0404601F053
:1019A000D5FD051C083D1F2D00DDDAE02822131AA5
:1019B000201C4146D840A940031C0B43AC40AE421A
:1019C00000DD90E0AE1B711C1F2900DD00E11F202F
:1019D000851B1A1C201CAA40C840AC401043661E40
:1019E000B4410443CB40012200260F2020400428AC
:1019F00064D0201DA042A441654280215B190124CE
:101A00000D041D402740002D07D09D4EB24200D14D
:101A10009AE09C49161C0B4001325C07C008520535
:101A20000443DB08550D012D62DD1B0376051B0BFE
:101A3000760D00200021090D201C0A05924C13434D
:101A4000760575081C402C436300FF07590839438D
:101A50003CBC90469946A246AB46F8BD002B00DC44
:101A600091E0002E31D0864EB54200D1A9E080240D
:101A70004E4622041643B146382B00DD18E11F2BD9
:101A800000DD73E12026F61A4A46B24090465246DF
:101A90004446DA4022435446B440261C741EA641F4
:101AA0004C463243DC401218F6E0041C0F206A1C3E
:101AB0005B462E1C0F1C204004289AD180252D0443
:101AC00001211D400F40201C9DE7144300D0DDE0A4
:101AD0006A1C5B46041C2E1C87E780215B46041CA5
:101AE0000A012E1C81E7761B664D2B40721C7CE799
:101AF000211C194300D167E2002E41D0802002034F
:101B0000134392E7002B00D088E0691C4E05740D4A
:101B1000012C00DC1AE15B46161C4C46821A191B8C
:101B200090429B415B42C91A88460B0200D49EE05A
:101B3000371ABA4592415E46A41B5342E11A8846C1
:101B40003C1C2E1C674625E7161C0023002470E76A
:101B5000201C01F0FBFC2030051C083D1F2D00DC83
:101B600024E7031C283B9C40231C002427E74A460B
:101B700053461A430026002A00D1FBE60122F9E66B
:101B80001D032B0B55E7002B00D004E16E1C7405E0
:101B9000630D012B00DCAAE039498E4200D130E10F
:101BA0001118814280414B4642425B449B18DC073E
:101BB00049080C435B08AA1C17E7314FBD4200D00F
:101BC000C2E6041C80205B460F1C02012E1C0CE7A1
:101BD000301C1F381A1CC240151C202900D182E07D
:101BE0003F218E1BB3401C43631E9C412C430122AA
:101BF00000230026F9E61C1C203C4F46E7403E1C13
:101C0000202B72D04022D41A4B46A3401A1C5746B0
:101C10003A43531E9A4132430026ABE65F42002D01
:101C200050D0174DAE4200D155E180245A462104D0
:101C30000A439346382F00DDDAE01F2F00DD78E1FC
:101C40002021CC1B051C5A46A240FD40A040154354
:101C50005B46421E90412843FB4057463C1AA24532
:101C600092414846C11A55424B1B67468CE6081CF8
:101C7000104330D100270122002304200026CCE6A7
:101C8000FF070000FFFF7FFFFFFF0F80013B002BDE
:101C900024D153461A184C46824280415C44434248
:101CA000E3182E1C141C18023ED4721C0F1C9CE658
:101CB0004A4653461A430024002A00D1F3E6012283
:101CC0001218E9E75B46034300D083E0231C721C33
:101CD0005446674689E6141C2E1C5BE6CD4EB54281
:101CE00000D0C9E66DE700237DE700228FE75E465E
:101CF0000643002D00D0F4E0002E00D14CE14B460D
:101D0000134300D17EE115184E46854280415E4462
:101D10004242B3181E0200D482E1BF4F2C1C3B404C
:101D200002220F1C012660E6BA4D701CA8424BD05F
:101D3000B94F0125254062083B402C1CDF071443A6
:101D40003C43B21C5B08061C0F1C4EE65E46064375
:101D5000002D2CD1002E00D07DE04E46141C1643E1
:101D600088D04B466746012200263EE61E1C203ED8
:101D70004C46F440261C202B00D1D8E04022D41A37
:101D80004B46A3401A1C54462243531E9A413243E9
:101D90000024121880E75B42002D37D15C460443D3
:101DA00000D0D7E0721C4B4654460F1C1DE6002E97
:101DB0006ED14B46141C134300D1DCE080254B460A
:101DC00067462A01934E10E68021061C0A01002373
:101DD000042022E6013F002F79D1171A5B46BA454D
:101DE000AD414946CA1A68423C1C131A6746CBE506
:101DF0005F46074300230020002F00D12DE701207C
:101E00002BE780252A010023042006E6814DAE42FF
:101E100000D1D3E080245D4622041543AB46382B25
:101E200000DDB0E01F2B00DDDBE02025ED1A021CF9
:101E30005C46AC40DA40A840451EA841224302431C
:101E40005846D840031C55465419544592414B44BA
:101E500050421B1827E74A465646324300D185E0D8
:101E6000851B5B464C46A8429241191B56428B1B70
:101E70001E0200D4ADE057463D1A5B46AA45894193
:101E8000E41A4A42A31A67462C1C01220026ACE53C
:101E90004D46161C154344D05C468021C00862079D
:101EA000E3080D0310432B4200D181E04C46E108CA
:101EB00029427DD1F70866073E430B1C6746700F29
:101EC000DB008022F40003431201524E8DE5514D98
:101ED000AE4200D0AEE680204B4654466746020133
:101EE00083E5002E5ED04C4614431AD0C7088025E7
:101EF000584643072C03C0081F43204208D04E46D3
:101F0000F308234204D15246D5087707181C2F4303
:101F1000C300FC00780F0F1C802103430A013D4ED3
:101F200063E5802632015B46041C3A4E5DE50022E3
:101F300029E7391C20395C46CC40221C202F67D071
:101F40004023DF1B5D46BD402843431E984110439C
:101F5000002382E6013B002B2CD150445C4690428A
:101F6000AD414C446A42A318041C9CE65B46041C29
:101F70000122002639E58024042100272201274B75
:101F80004842244E49E55D46054300230022002DCA
:101F900000D158E7012256E7141C4B460F1C0122C2
:101FA000002622E5141C80224B461201194E1CE526
:101FB000061C84E7174A964200D030E70F1C8021A8
:101FC0004B4654460A0110E57405660D00230024B3
:101FD0002FE5181C284300D14CE62C1C01220026BA
:101FE00003E51C1C203C5D46E5402C1C202B1CD02E
:101FF0004022D31A5A469A400243501E824122433D
:10200000002320E75B46041C0F1C01220026ECE4A1
:10201000002599E7FF070000FFFF7FFFFFFF7F001C
:102020002C1C0F1C01220026DFE40022E4E7C0463E
:10203000F0B54D4644465F465646F0B41D1C4B0075
:10204000141C0E035B0DCA0F87B0071C360B984695
:102050009146002B1DD1321C024300D181E1002E9C
:1020600000D104E2301C01F071FA272800DDF8E10C
:102070002821031C083B0A1A391C9E40D1400E43FC
:102080009F40C14B0021181A002280468A460092C8
:102090000FE0BE48834231D080214B031E43BC4831
:1020A0007A0FF600002100231643FF0080448A4681
:1020B0000093291C201C251C4A000C03CB0F240B69
:1020C000520D9B4625D1211C014300D150E1002C2B
:1020D00000D1C2E1201C01F039FA272800DDB6E169
:1020E000031C2822083B291C121A9C40D1400C4397
:1020F0009D40A54B1A1A0020029019E0321C3A4369
:1021000000D029E108270223BA46002600270093C1
:10211000CFE79E48824200D113E180214B031C434C
:102120009B49680FE40000230443ED00521802931A
:1021300048465B46434002985146019301430F29AC
:1021400000D8DFE043469A1A0492A64200D86EE116
:1021500071087B08F6073343FA07894698460292CE
:10216000280E240204432D022704390CAB46250C0B
:1021700000914846291CFFF7FDFA009F061C4743C3
:10218000291C4846FFF73AFB434608041A0C104343
:10219000874207D90019013E844203D8874201D9FA
:1021A000013E0019C11B8A46081C291CFFF7E2FAF0
:1021B000009B071C4343291C50469946FFF71EFB12
:1021C000424610040B04010C0B43994504D91B191A
:1021D000013F9C4200D864E136043E435F464A46D4
:1021E000390C89469B1A59463204170C0A04494691
:1021F0007943120C03928C460399300C7A43414385
:102200004F4678438C44170C6744B94202D9802169
:1022100049024018390C120440183F04110C7F1871
:10222000834200D227E100D141E102991B1ACF1B62
:10223000B942804141425A1A9046A24200D15FE120
:10224000101C291CFFF796FA009B02904343291C9F
:1022500040469A46FFF7D2FA380C090401438A45F2
:102260000AD9029A0919013A02928C4204D88A4585
:1022700002D9013A029209195346C81A291C05903D
:10228000FFF778FA009A291C424380460598924647
:10229000FFF7B4FA3F040D043A0C2A43924509D9DA
:1022A00001214B4212199844944203D8924501D916
:1022B00098441219029D43462F041F435046111A99
:1022C0003804030C4D465D430398AC46039D3A0C1D
:1022D000584355434B465A43AC44030C63449D4218
:1022E00002D980256D0252191D0C000452191B04DD
:1022F000050C5B19914200D2E6E000D13DE10122DC
:1023000017435AE0890023488C46604401688F4691
:10231000019B1E4A0026002700200021381C0F0DBB
:102320003C051D4D34431205254015436E00DB0767
:102330007108194307B03CBC90469946A246AB468B
:10234000F0BD211C03202943029000D0F0E60223B7
:10235000002400250293EBE60C2003218246009125
:10236000A7E604270123BA46002600270093A0E62B
:102370000121002400250291DAE601270023074EFF
:102380007F42024AC8E7C0460DFCFFFFFF0700007E
:1023900001FCFFFFF0360000FFFF0F80FFFF0F0082
:1023A0002F1C5A46029D261C0192022DB0D0032DEF
:1023B00000D101E1012D00D19CE0049B82481A1854
:1023C000002A00DC8CE00F243C40042C05D03B1D8F
:1023D000BB42BF417D4276191F1CF10105D57B4AE6
:1023E00004998020C40016400A19794B9A4200DDF6
:1023F0008EE77507FF08760251052F43360B4A0D0D
:10240000019B89E700220026002785E78020010341
:102410000E4216D00C4214D10C432603360B5B46F9
:102420002F1C6C4A78E74C460194009DBDE7A642FC
:1024300043D00498B846013800270490B14602976B
:102440008EE60E4333031E0B624A4B4664E7041CC0
:10245000283CA5402C1C00254BE601F077F82030E5
:102460003BE6061C283EB7403E1C002709E601F06B
:102470006DF82030F9E5029A013E111C5944594586
:10248000924152421219D3189C4204D298426BD8FE
:1024900016D01B1ACBE6A342FBD18B45F6D9231AE3
:1024A000C5E6994500D897E6013F1B1994E6029AC4
:1024B000BA42E0D302990023B9E6AF42B9D947E660
:1024C0008F4251D80023B2E60919013F58468C4289
:1024D00019D9914200D012E7984200D00FE76CE77B
:1024E0003D4C049D631B382B1CDD019B0022002604
:1024F000002711E7019B00222B40002600270BE755
:1025000001277F4259E78A4203D800D0F7E6984274
:10251000E2D25D4668005845AD416D422C19013F3D
:102520000919D6E71F2B34DC049C2C4A381CA5184B
:10253000311CAF40D840A9403C1C0143671EBC4140
:102540000F1C2743DE400F233B40042B05D03A1DD0
:10255000BA42BF417D427619171C320211D5019B48
:10256000012200260027D7E659445945924152429C
:102570001219D318013E1B1A59E6002BA4D10020D2
:10258000AAE77007FF08710207430E0B019B0022A8
:10259000C2E61349049C301C0A1BD040051C202BAA
:1025A00008D0104BE1188E4037437B1E9F412F43CC
:1025B0000026C8E70026F7E7802210030643310310
:1025C0000E0B019B034AA7E6FF030000FFFFFFFE7F
:1025D000FE070000FF07000002FCFFFF1E040000D2
:1025E000E2FBFFFF3E040000F0B5944647461A03A5
:1025F000061C580080B4170B420D19480D034C00FF
:10260000DB0F2D0B640DC90F9846844208D0144887
:1026100082420DD00120944212D004BC9046F0BDFD
:102620002B1C33430120002BF7D10D488242F1D1FE
:1026300063463B430120002BEFD101209442ECD1B3
:10264000BD42EAD16645E8D1414506D0002CE4D12F
:10265000281C3043451EA841DFE70020DDE7C046C7
:10266000FF070000F0B557464E464546E0B4041C4F
:102670004E000803C90F8A46171C59001A03050BA0
:10268000700D160B4A0D3049DB0F9C46884232D044
:102690002D498A4235D000280FD1291C21434B42B5
:1026A0004B419846002A0BD0002B1AD1E2452CD082
:1026B0005546002D18D1012018E0002AF6D1904689
:1026C000311C39434B424B414146002906D1002B76
:1026D000ECD056460120002E08D005E00020002B4B
:1026E00004D16746002FE6D1012358421CBC904616
:1026F0009946A246F0BD2B1C2343C9D00221484273
:10270000F4E7331C3B43C6D0F8E7904205DC09DA16
:102710005246002AE8D00120E8E75446002CE3D1D5
:102720000120E3E7B542C3D807D00020B542DDD28F
:1027300050460028D8D00120D8E7BC42B8D80020A5
:10274000BC42F5D3D2E7C046FF070000F0B54446CF
:102750005F4656464D46F0B49446061C1A03580090
:10276000170B420D2E480D034C00DB0F2D0B640D93
:10277000C90F9846844233D02948824236D0002C73
:1027800019D0002A20D1934663463B435842584112
:102790005B468246002B1DD051460020002904D103
:1027A0004246002A14D1012460423CBC904699461E
:1027B000A246AB46F0BD2B1C3343584243419B46D7
:1027C000002AE1D0002BEBD1414515D00029EAD1F8
:1027D0000120EAE70028F7D001200029E5D0E2E750
:1027E0002B1C33430220002BDFD1C5E763463B435C
:1027F0000220002BD9D1C2E79442E7DC05DBBD42C1
:10280000E4D806D00020BD42CFD20029CBD0012091
:10281000CBE76645DAD800206645F6D3C5E7C04663
:10282000FF070000F0B5564644465F464D46F0B4FB
:102830004F001D1C0B03141C1A0B7B0D87B0061CCC
:1028400092469846CF0F002B21D1024300D149E197
:102850005346002B00D1E4E1504600F077FE031E02
:10286000272B00DDD8E1083B5146994028228846B5
:10287000111A321CCA4041460A4392469E40D84B28
:102880000022181A002180469146039111E0D54894
:1028900083423ED0802153464A031A43D000710F31
:1028A0000843D14A824600230020F600904499460E
:1028B0000390291C201C251C4A000C03CB0F240B61
:1028C000520D9B4631D1211C014300D112E1002C55
:1028D00000D19DE1201C00F039FE272800DD91E1A8
:1028E000031C2822083B291C121A9C40D1400C438F
:1028F0009D40BB4B59461A1A794000204B46019126
:1029000003430F2B26D89900B84B8C4663441968B3
:102910008F46111C314300D0DFE008260020022141
:10292000B146824600260391C3E7AE48824200D1F9
:10293000C9E080214B031C43AB49680FE40004430A
:10294000ED0052180020594679404B46019103434F
:102950000F2BD8D942443304290404921A0C0F0CCB
:10296000101C7843360C331C80462D0C7B43301CE6
:102970006843111C69439C4643468346180C08185B
:102980006044844500D91FE1010C434603911904BA
:102990000B0C0004C0182104240C0590101C624389
:1029A000090C02924843321C66434A43029BB146DB
:1029B000060C9046B4461A1C62444244904502D923
:1029C000802673029944160CB046C14400044B465D
:1029D000060C12040293931956463204100C021C82
:1029E0006A439C46031C7B439146320C57439846EE
:1029F0001B0C9A46D144B94455434F4502D9802710
:102A00007E02AD194B461F0C4646ED191F043304D8
:102A10001E0C031C4B436043514354431A0C801853
:102A2000B046401847449A46814202D980214E025E
:102A3000A419039B1A1C62445A44624589414E42C0
:102A40005146B34603040E049C460299330C63447A
:102A5000CE18B046C246DA44D219BA42BF415146F6
:102A60007B426F18F9189946DA459B415E42029BFA
:102A7000B3469845B64176425B461E43000C494535
:102A80009B41AF42AD4136186F4258423843361829
:102A90000598341956020643CB0D6402701E864118
:102AA000D20D164349021C430E43E0012FD50127E6
:102AB000049D374073083E1CE00701351E43049512
:102AC0000643640823E0231C2B430320002B00D083
:102AD00039E700240025022035E70C220323914624
:102AE0000393E6E6042600230120B1469A46002619
:102AF0000390DEE600240025012024E703985446D5
:102B0000022844D0032800D1EAE0012860D0049ACA
:102B100037495018002800DC95E00F273740042F74
:102B200005D0311DB142B641754264190E1CE10158
:102B300005D53048049A8023DF000440D0192E497F
:102B4000884224DC019B6507F608640242050127E0
:102B50002E43240B520D1F4000200021090D0D05AE
:102B60002543264C12052C4014436300301C5E089C
:102B7000FF07311C394307B03CBC90469946A2463A
:102B8000AB46F0BD5A462E1C01920228BAD1019ED6
:102B900001273740134A00240026DDE754460197F9
:102BA0000398ADE701260027154C76420D4AD3E77E
:102BB0002E1CA5E7802213035146194235D10B4341
:102BC0001D032C0B074AC7E780214B029B44DBE621
:102BD000019B00221840C7B200240026BCE7C04673
:102BE0000DFCFFFFFF07000001FCFFFF3037000076
:102BF000FF030000FFFFFFFEFE070000FFFF0F8046
:102C0000FFFF0F00041C283CA5402C1C002570E68B
:102C100000F09CFC203060E6283B9E40B246002637
:102C20002DE600F093FC203019E61C4206D11C432F
:102C30002603340B5F462E1C2E4A8DE70B431803E8
:102C4000040B2C4A88E72C4F049D7B1B382B06DD98
:102C5000019E012737400022002400267CE71F2B1D
:102C600021DC049A254F351CD119201C8E40DD40F3
:102C70008840321C2843561EB241061C1643DC40D5
:102C80000F233340042B05D0371DB742B6417142A4
:102C900064183E1C250217D5019B01271F40012205
:102CA0000024002658E71648049A211C871AF94088
:102CB0000D1C202B12D0134BD01884402643721EBB
:102CC00096412E430024DBE7019A6507F60860026F
:102CD000012717402E43040B00223DE70024EDE7B7
:102CE00080210F033C43019824030127240B074054
:102CF000004A31E7FF07000002FCFFFF1E0400004E
:102D0000E2FBFFFF3E040000F0B557464E46454645
:102D1000E0B4071C0D034E00680ACC0F790F08437E
:102D20008446111C18035A00FD00400ADF0F4B0FA8
:102D30001843CA4BC900760D520D8A469A4200D1FB
:102D4000E0E001235F40B946BC4200D1A8E0B71AD9
:102D5000002F00DC10E1002A12D15246024300D1BC
:102D6000D4E0013F002F00D060E151466F1ABD4210
:102D7000AD4162466B42101A3D1CC31A371C24E059
:102D8000B64A964200D1E3E080210B041843382F65
:102D900000DD23E11F2F00DD66E12021C91B021C9D
:102DA00053468A40FB401A4353468B40191C4B1E26
:102DB0009941031C0A43FB40AA1A67469542AD415C
:102DC000F81A6B42C31A151C371C1A0200D4C7E04C
:102DD0005E02710A88464246002A00D1F0E0404671
:102DE00000F0B4FB021C083A1F2A00DDF1E02823A2
:102DF000181A2E1C4146C6409140331C0B43954087
:102E0000974200DDA9E0D01B411C1F2900DD12E123
:102E10001F273A1A2E1C181CCE4090409540304374
:102E20006A1E9541CB400543012100270F262E4005
:102E3000042E00D172E02E1DAE42AD4168428022C8
:102E40001B180125100418402C40002807D0834F80
:102E5000B94200D1B0E0824A0F1C13400131F208A0
:102E600049055E073243DB08480D012800DC79E0A4
:102E70001B0378051E0B470D00200021090D7D0561
:102E80000B05784F1E43101C37406A0817437E001D
:102E90007108E40721431CBC90469946A246F0BD48
:102EA000B31A002B00DCA6E0002A3ED06B4A964203
:102EB0004ED080210F043843382B00DC18E15346F4
:102EC000184300270022002800D001225219AA42EC
:102ED000AD4167446B42FB18151C371C1E023FD5E1
:102EE0005E487E1C864200D17BE15D4901222A407A
:102EF0000B406808151CD90705430D435B08B91C36
:102F0000371C93E7014300D11BE71CE7711C371CFA
:102F10000F2663462E40042E00D08CE78022012627
:102F20001004344018402E1C8FE752460243EDD067
:102F3000013B002B09D157467919A94292415542CC
:102F400060444319371C0D1CC8E744498E42B3D175
:102F5000802063460101371C68E7BF1A404A1340CE
:102F6000791C63E7151C1D4300D121E2002F3ED0E0
:102F7000802631030B437BE7002F00D086E0721CD4
:102F800051054B0D012B00DCF0E05746EA1B954242
:102F90009B416746391A5B42C91A88460B0200D426
:102FA0009DE05446651BAA459241C01B5742C31B76
:102FB0009846371C4C460EE70F1C002600225BE7A4
:102FC000281C00F0C3FA2030021C083A1F2A00DC3B
:102FD0000DE7283885402B1C002511E7574638435C
:102FE00000230022002800D1E6E60122E4E61D03CA
:102FF0002E0B002740E7002B00D0D9E0771C790585
:103000004A0D012A00DC95E0144B9F4200D1FEE0FE
:1030100051464919A942AD4162466B428018C21817
:103020004908D5070D435308B11CFFE60B498E42F2
:1030300000D0ACE68CE7061C1F3E1F1CF7403E1C70
:10304000202973D03F22101A83401D436B1E9D41DF
:103050003543012100230027E8E6C046FF070000B2
:10306000FFFF7FFFFFFF0F803B1C203B011CD9406F
:103070000B1C202F5CD04022D71BB840021C5046AE
:103080000243511E8A411A43002395E67F42002ED7
:1030900040D0CA4CA24200D11FE1802166460B04F9
:1030A0001E43B446382F00DDA9E01F2F00DD3DE1AF
:1030B0002023DE1B291C6446B440F940B5406B1E3A
:1030C0009D41214363460D43FB4057467D1BC01A7B
:1030D000AA459B415F42C31B4C46171C75E60D1C5D
:1030E000154320D100240121002304260027B6E641
:1030F0001F2B4ADC2021C91A071C52468F40DA4098
:103100003A4357468F40391C4F1EB941D8400A43B5
:10311000071CDBE664462C4369D1511C031C554651
:10312000171C4C4682E6151C371C54E600238CE71E
:103130000022A4E767462F43002E00D0D4E0002FE2
:1031400000D126E15346034300D1E4E051464F1934
:10315000AF42AD4160446E4283191E0200D44EE17D
:1031600097483D1C0340022101275FE66146294341
:10317000002E29D1002976D151460143B2D0031C3B
:1031800055464C460121002750E61F1C203F011CDC
:10319000F9400F1C202B00D1C6E04022D31A9840E2
:1031A000021C50460243531E9A413A4300278DE6C3
:1031B0005B42002E30D167462F4300D0C8E0511C3F
:1031C000031C5546171C31E6002965D157460743B5
:1031D00000D1C8E0031C802055464C460101774FC2
:1031E00024E68023371C19010426002337E6013F1B
:1031F000002F6ED154466146651B401A68E767464A
:103200003D430023002D00D15FE701255DE78026C7
:1032100031010023042622E668498A4200D1C1E038
:103220008027664639040E43B446382B00DDA2E001
:103230001F2B00DDD0E02021C91A2E1C67468F40CD
:103240008D40DE403E43291C67464D1EA941DF40AC
:10325000351C0D433E1C554455459B4130185E427C
:103260008319171C3AE65646064354D05746EA1BC4
:1032700063469542B641191A7342CB1A1E0200D416
:10328000A2E07D1B6446AA45BF41001B7A42831A17
:103290004C4601210027C9E5564606433FD0624609
:1032A00080215707ED08D3080A033D43134208D095
:1032B000C608164205D15546EC0845072543331C80
:1032C0004C46680FDB0080260343ED0031013B4F85
:1032D000ACE53A498A4200D0E4E68026031C554614
:1032E0004C463101171CA1E5002F4CD05346034337
:1032F00015D062468026ED085107D30837030D43E9
:103300003B42DED0C2083A42DBD15546E9084507C8
:10331000131C0D43D5E763460121002786E580276E
:1033200039016346254F81E500223AE73C1C203CE9
:103330006646E640331C202F5FD04024E71B6646DC
:10334000BE40311C0D43691E8D411D430023BCE668
:10335000013B002B22D155445545BF417B4260447F
:10336000C318171CBAE58021042200240901154B5B
:103370005642124F73E563461D430026002D00D1CF
:1033800069E7012567E78022031C554611010B4FB1
:103390004CE5031C55460121002747E507498A42B1
:1033A00000D042E78021031C55460901171C3DE56A
:1033B0007F057F0D002600225EE5C046FF07000066
:1033C000FFFF7FFFFFFF7F001D1C154300D189E633
:1033D000151C0121002729E51F1C203F6146F940EB
:1033E000202B10D04026F31A67469F403B1C1D43FC
:1033F0006B1E9D410D4300262DE70021A2E73D1CD9
:103400000121002712E50023F1E7C046134A0B0310
:1034100030B5051C48001C0BC90F430D002093421A
:1034200011DD0F4883420FDC802250030D4A044314
:10343000D01A1F280BDD0C4DEB1ADC40221C504229
:10344000002900D1101C30BD084C0819FBE7C5400D
:1034500007482A1C1D18AC402243F0E7FE03000079
:103460001D0400003304000013040000FFFFFF7F71
:10347000EDFBFFFFF8B5041E2DD0C50F00D0444270
:10348000201C00F063F816490A1A0A2816DD0B38CA
:103490008440570526037A0D360B002700200021B3
:1034A000381C0F0D3B050F4C33431C4016053443AD
:1034B00061004A08ED07111C2943F8BD0B26011CC9
:1034C000301A1531231CC4408B40520521031F1CA8
:1034D0000E0B520DE2E70025002200260027DDE753
:1034E0001E040000FFFF0F8070B5041E26D000F000
:1034F0002DF814490A1A0A2813DD0B3884405605A2
:103500002403720D250B002600200021301C0E0D17
:1035100033050D4C2B4311051C400C436500690815
:1035200070BD0B23051C181A1535211CC440A94079
:10353000520525030E1C2D0B520DE5E70022002538
:103540000026E1E71E040000FFFF0F801C2101237D
:103550001B04984201D3000C10391B0A984201D376
:10356000000A08391B09984201D30009043902A254
:10357000105C40187047C0460403020201010101BB
:10358000000000000000000000000000FC3F0050B0
:10359000FC3F0150000000000000000040008000DF
:1035A0000001000202000400080010008000000179
:1035B000000200042000400020000100020004007E
:1035C00008001000020202020101010101010101D3
:1035D000010102020202020200000000008000500D
:1035E0000080015000000000000000004D61696E85
:1035F000204D656E75202D20526573747269637459
:103600006F7220506C6174652076302E3100312E3F
:1036100020204C4544204F4E00322E20204C454463
:10362000204F464600332E20204D50553630353041
:103630002057484F5F414D5F4900342E2020436C96
:1036400065617220736C65657000352E20205265AF
:1036500061642058003D3D3E20004D5055363035C8
:10366000302057484F5F414D5F493A203078004D38
:1036700050553630353020582D61786973004D50E3
:103680005536303530205820617869733A203078CB
:10369000004D5055363035302054656D70004D501A
:1036A00055363035302074656D70202846293A2013
:1036B000000000000000000000000000000000000A
:1036C000FD050000FD0A000091050000CD05000089
:1036D000A9050000F90500006E616E00696E6600C4
:1036E0006F7666002E000000430000000800001006
:1036F000442100001023000004240000A023000047
:10370000042400007A23000004240000A023000009
:1037100010230000102300007A230000A0230000E3
:103720002624000026240000262400000C2400008B
:1037300054290000B02B0000B02B0000842B0000A7
:10374000FC2A0000FC2A0000A42B0000842B0000AF
:10375000FC2A0000A42B0000FC2A0000842B00009F
:103760009C2B00009C2B00009C2B0000B42B000025
:10377000F8B5C046F8BC08BC9E467047D51400009A
:10378000C9000000F5070000F8B5C046F8BC08BC49
:083790009E467047A1000000F5
:10379800F59F353FE2F7234100000000F4020010D6
:1037A8005C030010C40300100000000000000000CB
:1037B8000000000000000000000000000000000001
:1037C800000000000000000000000000E8360000D3
:1037D80000000000000000000000000000000000E1
:1037E80000000000000000000000000000000000D1
:1037F80000000000000000000000000000000000C1
:1038080000000000000000000000000000000000B0
:1038180000000000000000000000000000000000A0
:103828000000000000000000000000000000000090
:103838000000000000000000000000000000000080
:1038480001000000000000000E33CDAB34126DE61D
:10385800ECDE05000B000000000000000000000086
:103868000000000000000000000000000000000050
:103878000000000000000000000000000000000040
:103888000000000000000000000000000000000030
:103898000000000000000000000000000000000020
:103BC800080000100000000000000000340400108D
:103BD800340400103C0400103C040010440400109D
:103BE800440400104C0400104C040010540400104D
:103BF800540400105C0400105C04001064040010FD
:103C0800640400106C0400106C04001074040010AC
:103C1800740400107C0400107C040010840400105C
:103C2800840400108C0400108C040010940400100C
:103C3800940400109C0400109C040010A4040010BC
:103C4800A4040010AC040010AC040010B40400106C
:103C5800B4040010BC040010BC040010C40400101C
:103C6800C4040010CC040010CC040010D4040010CC
:103C7800D4040010DC040010DC040010E40400107C
:103C8800E4040010EC040010EC040010F40400102C
:103C9800F4040010FC040010FC04001004050010DB
:103CA800040500100C0500100C0500101405001088
:103CB800140500101C0500101C0500102405001038
:103CC800240500102C0500102C05001034050010E8
:103CD800340500103C0500103C0500104405001098
:103CE800440500104C0500104C0500105405001048
:103CF800540500105C0500105C05001064050010F8
:103D0800640500106C0500106C05001074050010A7
:103D1800740500107C0500107C0500108405001057
:103D2800840500108C0500108C0500109405001007
:103D3800940500109C0500109C050010A4050010B7
:103D4800A4050010AC050010AC050010B405001067
:103D5800B4050010BC050010BC050010C405001017
:103D6800C4050010CC050010CC050010D4050010C7
:103D7800D4050010DC050010DC050010E405001077
:103D8800E4050010EC050010EC050010F405001027
:103D9800F4050010FC050010FC05001004060010D6
:103DA800040600100C0600100C0600101406001083
:103DB800140600101C0600101C0600102406001033
:103DC800240600102C0600102C06001034060010E3
:103DD800340600103C0600103C0600104406001093
:103DE800440600104C0600104C0600105406001043
:103DF800540600105C0600105C06001064060010F3
:103E0800640600106C0600106C06001074060010A2
:103E1800740600107C0600107C0600108406001052
:103E2800840600108C0600108C0600109406001002
:103E3800940600109C0600109C060010A4060010B2
:103E4800A4060010AC060010AC060010B406001062
:103E5800B4060010BC060010BC060010C406001012
:103E6800C4060010CC060010CC060010D4060010C2
:103E7800D4060010DC060010DC060010E406001072
:103E8800E4060010EC060010EC060010F406001022
:103E9800F4060010FC060010FC06001004070010D1
:103EA800040700100C0700100C070010140700107E
:103EB800140700101C0700101C070010240700102E
:103EC800240700102C0700102C07001034070010DE
:103ED800340700103C0700103C070010440700108E
:103EE800440700104C0700104C070010540700103E
:103EF800540700105C0700105C07001064070010EE
:103F0800640700106C0700106C070010740700109D
:103F1800740700107C0700107C070010840700104D
:103F2800840700108C0700108C07001094070010FD
:103F3800940700109C0700109C070010A4070010AD
:103F4800A4070010AC070010AC070010B40700105D
:103F5800B4070010BC070010BC070010C40700100D
:103F6800C4070010CC070010CC070010D4070010BD
:103F7800D4070010DC070010DC070010E40700106D
:103F8800E4070010EC070010EC070010F40700101D
:103F9800F4070010FC070010FC07001004080010CC
:103FA800040800100C0800100C0800101408001079
:103FB800140800101C0800101C0800102408001029
:103FC800240800102C0800102C0800100000020023
:043FD800FFFFFFFFE9
:0400000300000101F7
:00000001FF
